{
  "contractName": "Lottery",
  "abi": [
    {
      "constant": true,
      "inputs": [],
      "name": "answerForTest",
      "outputs": [
        {
          "name": "",
          "type": "bytes32"
        }
      ],
      "payable": false,
      "stateMutability": "view",
      "type": "function"
    },
    {
      "constant": true,
      "inputs": [],
      "name": "owner",
      "outputs": [
        {
          "name": "",
          "type": "address"
        }
      ],
      "payable": false,
      "stateMutability": "view",
      "type": "function"
    },
    {
      "inputs": [],
      "payable": false,
      "stateMutability": "nonpayable",
      "type": "constructor"
    },
    {
      "anonymous": false,
      "inputs": [
        {
          "indexed": false,
          "name": "index",
          "type": "uint256"
        },
        {
          "indexed": true,
          "name": "bettor",
          "type": "address"
        },
        {
          "indexed": false,
          "name": "amount",
          "type": "uint256"
        },
        {
          "indexed": false,
          "name": "challenges",
          "type": "bytes1"
        },
        {
          "indexed": false,
          "name": "answerBlockNumber",
          "type": "uint256"
        }
      ],
      "name": "BET",
      "type": "event"
    },
    {
      "anonymous": false,
      "inputs": [
        {
          "indexed": false,
          "name": "index",
          "type": "uint256"
        },
        {
          "indexed": false,
          "name": "bettor",
          "type": "address"
        },
        {
          "indexed": false,
          "name": "amount",
          "type": "uint256"
        },
        {
          "indexed": false,
          "name": "challenges",
          "type": "bytes1"
        },
        {
          "indexed": false,
          "name": "answer",
          "type": "bytes1"
        },
        {
          "indexed": false,
          "name": "answerBlockNumber",
          "type": "uint256"
        }
      ],
      "name": "WIN",
      "type": "event"
    },
    {
      "anonymous": false,
      "inputs": [
        {
          "indexed": false,
          "name": "index",
          "type": "uint256"
        },
        {
          "indexed": false,
          "name": "bettor",
          "type": "address"
        },
        {
          "indexed": false,
          "name": "amount",
          "type": "uint256"
        },
        {
          "indexed": false,
          "name": "challenges",
          "type": "bytes1"
        },
        {
          "indexed": false,
          "name": "answer",
          "type": "bytes1"
        },
        {
          "indexed": false,
          "name": "answerBlockNumber",
          "type": "uint256"
        }
      ],
      "name": "FAIL",
      "type": "event"
    },
    {
      "anonymous": false,
      "inputs": [
        {
          "indexed": false,
          "name": "index",
          "type": "uint256"
        },
        {
          "indexed": false,
          "name": "bettor",
          "type": "address"
        },
        {
          "indexed": false,
          "name": "amount",
          "type": "uint256"
        },
        {
          "indexed": false,
          "name": "challenges",
          "type": "bytes1"
        },
        {
          "indexed": false,
          "name": "answer",
          "type": "bytes1"
        },
        {
          "indexed": false,
          "name": "answerBlockNumber",
          "type": "uint256"
        }
      ],
      "name": "DRAW",
      "type": "event"
    },
    {
      "anonymous": false,
      "inputs": [
        {
          "indexed": false,
          "name": "index",
          "type": "uint256"
        },
        {
          "indexed": false,
          "name": "bettor",
          "type": "address"
        },
        {
          "indexed": false,
          "name": "amount",
          "type": "uint256"
        },
        {
          "indexed": false,
          "name": "challenges",
          "type": "bytes1"
        },
        {
          "indexed": false,
          "name": "answerBlockNumber",
          "type": "uint256"
        }
      ],
      "name": "REFUND",
      "type": "event"
    },
    {
      "constant": true,
      "inputs": [],
      "name": "getPot",
      "outputs": [
        {
          "name": "value",
          "type": "uint256"
        }
      ],
      "payable": false,
      "stateMutability": "view",
      "type": "function"
    },
    {
      "constant": true,
      "inputs": [
        {
          "name": "index",
          "type": "uint256"
        }
      ],
      "name": "getBetInfo",
      "outputs": [
        {
          "name": "answerBlockNumber",
          "type": "uint256"
        },
        {
          "name": "bettor",
          "type": "address"
        },
        {
          "name": "challenges",
          "type": "bytes1"
        }
      ],
      "payable": false,
      "stateMutability": "view",
      "type": "function"
    },
    {
      "constant": false,
      "inputs": [
        {
          "name": "challenges",
          "type": "bytes1"
        }
      ],
      "name": "bet",
      "outputs": [
        {
          "name": "result",
          "type": "bool"
        }
      ],
      "payable": true,
      "stateMutability": "payable",
      "type": "function"
    },
    {
      "constant": false,
      "inputs": [
        {
          "name": "challenges",
          "type": "bytes1"
        }
      ],
      "name": "betAndDistribute",
      "outputs": [
        {
          "name": "result",
          "type": "bool"
        }
      ],
      "payable": true,
      "stateMutability": "payable",
      "type": "function"
    },
    {
      "constant": false,
      "inputs": [],
      "name": "distribute",
      "outputs": [],
      "payable": false,
      "stateMutability": "nonpayable",
      "type": "function"
    },
    {
      "constant": true,
      "inputs": [
        {
          "name": "challenges",
          "type": "bytes1"
        },
        {
          "name": "answer",
          "type": "bytes32"
        }
      ],
      "name": "isMatch",
      "outputs": [
        {
          "name": "",
          "type": "uint8"
        }
      ],
      "payable": false,
      "stateMutability": "pure",
      "type": "function"
    },
    {
      "constant": false,
      "inputs": [
        {
          "name": "answer",
          "type": "bytes32"
        }
      ],
      "name": "setAnswerForTest",
      "outputs": [
        {
          "name": "result",
          "type": "bool"
        }
      ],
      "payable": false,
      "stateMutability": "nonpayable",
      "type": "function"
    }
  ],
  "bytecode": "0x60806040526000600560006101000a81548160ff02191690831515021790555034801561002b57600080fd5b50336000806101000a81548173ffffffffffffffffffffffffffffffffffffffff021916908373ffffffffffffffffffffffffffffffffffffffff1602179055506115f48061007b6000396000f300608060405260043610610099576000357c0100000000000000000000000000000000000000000000000000000000900463ffffffff168063403c9fa81461009e5780637009fa36146100c957806379141f801461011257806384f7e4f0146101d15780638da5cb5b1461020457806399a167d71461025b578063e16ea857146102da578063e4fc6b6d14610334578063f4b46f5b1461034b575b600080fd5b3480156100aa57600080fd5b506100b36103a5565b6040518082815260200191505060405180910390f35b3480156100d557600080fd5b506100f860048036038101908080356000191690602001909291905050506103af565b604051808215151515815260200191505060405180910390f35b34801561011e57600080fd5b5061013d600480360381019080803590602001909291905050506104af565b604051808481526020018373ffffffffffffffffffffffffffffffffffffffff1673ffffffffffffffffffffffffffffffffffffffff168152602001827effffffffffffffffffffffffffffffffffffffffffffffffffffffffffffff19167effffffffffffffffffffffffffffffffffffffffffffffffffffffffffffff19168152602001935050505060405180910390f35b3480156101dd57600080fd5b506101e66105d4565b60405180826000191660001916815260200191505060405180910390f35b34801561021057600080fd5b506102196105da565b604051808273ffffffffffffffffffffffffffffffffffffffff1673ffffffffffffffffffffffffffffffffffffffff16815260200191505060405180910390f35b34801561026757600080fd5b506102b660048036038101908080357effffffffffffffffffffffffffffffffffffffffffffffffffffffffffffff1916906020019092919080356000191690602001909291905050506105ff565b604051808260028111156102c657fe5b60ff16815260200191505060405180910390f35b61031a60048036038101908080357effffffffffffffffffffffffffffffffffffffffffffffffffffffffffffff1916906020019092919050505061092f565b604051808215151515815260200191505060405180910390f35b34801561034057600080fd5b5061034961094c565b005b61038b60048036038101908080357effffffffffffffffffffffffffffffffffffffffffffffffffffffffffffff191690602001909291905050506110a9565b604051808215151515815260200191505060405180910390f35b6000600154905090565b60008060009054906101000a900473ffffffffffffffffffffffffffffffffffffffff1673ffffffffffffffffffffffffffffffffffffffff163373ffffffffffffffffffffffffffffffffffffffff1614151561049b576040517f08c379a000000000000000000000000000000000000000000000000000000000815260040180806020018281038252602b8152602001807f4f6e6c79206f776e65722063616e207365742074686520616e7377657220666f81526020017f722074657374206d6f646500000000000000000000000000000000000000000081525060400191505060405180910390fd5b816006816000191690555060019050919050565b60008060006104bc61156e565b6004600086815260200190815260200160002060606040519081016040529081600082015481526020016001820160009054906101000a900473ffffffffffffffffffffffffffffffffffffffff1673ffffffffffffffffffffffffffffffffffffffff1673ffffffffffffffffffffffffffffffffffffffff1681526020016001820160149054906101000a90047f0100000000000000000000000000000000000000000000000000000000000000027effffffffffffffffffffffffffffffffffffffffffffffffffffffffffffff19167effffffffffffffffffffffffffffffffffffffffffffffffffffffffffffff1916815250509050806000015193508060200151925080604001519150509193909250565b60065481565b6000809054906101000a900473ffffffffffffffffffffffffffffffffffffffff1681565b600080600080600086935086925085600060208110151561061c57fe5b1a7f010000000000000000000000000000000000000000000000000000000000000002915085600060208110151561065057fe5b1a7f01000000000000000000000000000000000000000000000000000000000000000290506004847effffffffffffffffffffffffffffffffffffffffffffffffffffffffffffff19169060020a900493506004847effffffffffffffffffffffffffffffffffffffffffffffffffffffffffffff19169060020a0293506004827effffffffffffffffffffffffffffffffffffffffffffffffffffffffffffff19169060020a900491506004827effffffffffffffffffffffffffffffffffffffffffffffffffffffffffffff19169060020a0291506004837effffffffffffffffffffffffffffffffffffffffffffffffffffffffffffff19169060020a0292506004837effffffffffffffffffffffffffffffffffffffffffffffffffffffffffffff19169060020a900492506004817effffffffffffffffffffffffffffffffffffffffffffffffffffffffffffff19169060020a0290506004817effffffffffffffffffffffffffffffffffffffffffffffffffffffffffffff19169060020a90049050837effffffffffffffffffffffffffffffffffffffffffffffffffffffffffffff1916827effffffffffffffffffffffffffffffffffffffffffffffffffffffffffffff191614801561086f5750827effffffffffffffffffffffffffffffffffffffffffffffffffffffffffffff1916817effffffffffffffffffffffffffffffffffffffffffffffffffffffffffffff1916145b1561087d5760019450610925565b837effffffffffffffffffffffffffffffffffffffffffffffffffffffffffffff1916827effffffffffffffffffffffffffffffffffffffffffffffffffffffffffffff191614806109125750827effffffffffffffffffffffffffffffffffffffffffffffffffffffffffffff1916817effffffffffffffffffffffffffffffffffffffffffffffffffffffffffffff1916145b156109205760029450610925565b600094505b5050505092915050565b600061093a826110a9565b5061094361094c565b60019050919050565b60008061095761156e565b600080600060035495505b60025486101561109a576004600087815260200190815260200160002060606040519081016040529081600082015481526020016001820160009054906101000a900473ffffffffffffffffffffffffffffffffffffffff1673ffffffffffffffffffffffffffffffffffffffff1673ffffffffffffffffffffffffffffffffffffffff1681526020016001820160149054906101000a90047f0100000000000000000000000000000000000000000000000000000000000000027effffffffffffffffffffffffffffffffffffffffffffffffffffffffffffff19167effffffffffffffffffffffffffffffffffffffffffffffffffffffffffffff1916815250509350610a748460000151611261565b925060006002811115610a8357fe5b836002811115610a8f57fe5b1415610f5657610aa284600001516112b5565b9050610ab28460400151826105ff565b915060016002811115610ac157fe5b826002811115610acd57fe5b1415610c4757610aec84602001516611c37937e08000600154016112dd565b945060006001819055507f8219079e2d6c1192fb0ff7f78e6faaf5528ad6687e69749205d87bd4b156912b868560200151878760400151856000602081101515610b3257fe5b1a7f0100000000000000000000000000000000000000000000000000000000000000028960000151604051808781526020018673ffffffffffffffffffffffffffffffffffffffff1673ffffffffffffffffffffffffffffffffffffffff168152602001858152602001847effffffffffffffffffffffffffffffffffffffffffffffffffffffffffffff19167effffffffffffffffffffffffffffffffffffffffffffffffffffffffffffff19168152602001837effffffffffffffffffffffffffffffffffffffffffffffffffffffffffffff19167effffffffffffffffffffffffffffffffffffffffffffffffffffffffffffff19168152602001828152602001965050505050505060405180910390a15b60006002811115610c5457fe5b826002811115610c6057fe5b1415610dcf576611c37937e080006001600082825401925050819055507f3b19d607433249d2ebc766ae82ca3848e9c064f1febb5147bc6e5b21d0adebc586856020015160008760400151856000602081101515610cba57fe5b1a7f0100000000000000000000000000000000000000000000000000000000000000028960000151604051808781526020018673ffffffffffffffffffffffffffffffffffffffff1673ffffffffffffffffffffffffffffffffffffffff168152602001858152602001847effffffffffffffffffffffffffffffffffffffffffffffffffffffffffffff19167effffffffffffffffffffffffffffffffffffffffffffffffffffffffffffff19168152602001837effffffffffffffffffffffffffffffffffffffffffffffffffffffffffffff19167effffffffffffffffffffffffffffffffffffffffffffffffffffffffffffff19168152602001828152602001965050505050505060405180910390a15b600280811115610ddb57fe5b826002811115610de757fe5b1415610f5557610e0284602001516611c37937e080006112dd565b94507f72ec2e949e4fad9380f9d5db3e2ed0e71cf22c51d8d66424508bdc761a3f4b0e868560200151878760400151856000602081101515610e4057fe5b1a7f0100000000000000000000000000000000000000000000000000000000000000028960000151604051808781526020018673ffffffffffffffffffffffffffffffffffffffff1673ffffffffffffffffffffffffffffffffffffffff168152602001858152602001847effffffffffffffffffffffffffffffffffffffffffffffffffffffffffffff19167effffffffffffffffffffffffffffffffffffffffffffffffffffffffffffff19168152602001837effffffffffffffffffffffffffffffffffffffffffffffffffffffffffffff19167effffffffffffffffffffffffffffffffffffffffffffffffffffffffffffff19168152602001828152602001965050505050505060405180910390a15b5b60016002811115610f6357fe5b836002811115610f6f57fe5b1415610f7a5761109a565b600280811115610f8657fe5b836002811115610f9257fe5b141561108357610fad84602001516611c37937e080006112dd565b94507f59c0185881271a0f53d43e6ab9310091408f9e0ff9ae2512613de800f26b8de48685602001518787604001518860000151604051808681526020018573ffffffffffffffffffffffffffffffffffffffff1673ffffffffffffffffffffffffffffffffffffffff168152602001848152602001837effffffffffffffffffffffffffffffffffffffffffffffffffffffffffffff19167effffffffffffffffffffffffffffffffffffffffffffffffffffffffffffff191681526020018281526020019550505050505060405180910390a15b61108c866113a4565b508580600101965050610962565b85600381905550505050505050565b60006611c37937e0800034141515611129576040517f08c379a000000000000000000000000000000000000000000000000000000000815260040180806020018281038252600e8152602001807f4e6f7420656e6f7567682045544800000000000000000000000000000000000081525060200191505060405180910390fd5b61113282611408565b15156111a6576040517f08c379a000000000000000000000000000000000000000000000000000000000815260040180806020018281038252601a8152602001807f4661696c20746f206164642061206e65772042657420496e666f00000000000081525060200191505060405180910390fd5b3373ffffffffffffffffffffffffffffffffffffffff167f100791de9f40bf2d56ffa6dc5597d2fd0b2703ea70bc7548cd74c04f5d215ab760016002540334856003430160405180858152602001848152602001837effffffffffffffffffffffffffffffffffffffffffffffffffffffffffffff19167effffffffffffffffffffffffffffffffffffffffffffffffffffffffffffff1916815260200182815260200194505050505060405180910390a260019050919050565b600081431180156112755750816101000143105b1561128357600090506112b0565b814311151561129557600190506112b0565b6101008201431015156112ab57600290506112b0565b600290505b919050565b6000600560009054906101000a900460ff166112d3576006546112d6565b81405b9050919050565b600080600080915081840390508473ffffffffffffffffffffffffffffffffffffffff166108fc829081150290604051600060405180830381858888f19350505050158015611330573d6000803e3d6000fd5b506000809054906101000a900473ffffffffffffffffffffffffffffffffffffffff1673ffffffffffffffffffffffffffffffffffffffff166108fc839081150290604051600060405180830381858888f19350505050158015611398573d6000803e3d6000fd5b50809250505092915050565b6000600460008381526020019081526020016000206000808201600090556001820160006101000a81549073ffffffffffffffffffffffffffffffffffffffff02191690556001820160146101000a81549060ff0219169055505060019050919050565b600061141261156e565b33816020019073ffffffffffffffffffffffffffffffffffffffff16908173ffffffffffffffffffffffffffffffffffffffff1681525050600343018160000181815250508281604001907effffffffffffffffffffffffffffffffffffffffffffffffffffffffffffff191690817effffffffffffffffffffffffffffffffffffffffffffffffffffffffffffff191681525050806004600060025481526020019081526020016000206000820151816000015560208201518160010160006101000a81548173ffffffffffffffffffffffffffffffffffffffff021916908373ffffffffffffffffffffffffffffffffffffffff16021790555060408201518160010160146101000a81548160ff02191690837f0100000000000000000000000000000000000000000000000000000000000000900402179055509050506002600081548092919060010191905055506001915050919050565b60606040519081016040528060008152602001600073ffffffffffffffffffffffffffffffffffffffff16815260200160007effffffffffffffffffffffffffffffffffffffffffffffffffffffffffffff1916815250905600a165627a7a72305820a621f75f93229246b2998d805cad265157c8fc0d10649fe3f1c5142a54daa4ec0029",
  "source": "pragma solidity >=0.4.22 <0.9.0;\n\ncontract Lottery {\n    struct BetInfo{\n        uint256 answerBlockNumber;\n        address bettor;\n        byte challenges; //0xab (1byte 정답)\n    }\n\n    address public owner;\n    //팟머니 저장\n    uint256 private _pot;\n    uint256 private _tail; // _bets로 데이터가 들어오면 _tail을 늘린다.\n    uint256 private _head; // 결과값 확인할 떄는 0번(_head)부터 차례대로 확인.\n\n    //베팅액\n    uint256 constant internal BET_AMOUNT = 5 * 10 **15;\n    uint256 constant internal BET_BLOCK_INTERVAL = 3;\n    uint256 constant internal BLOCK_LIMIT = 256;\n    //베팅 정보들을 저장할 맵\n    mapping (uint256 => BetInfo) private _bets;\n    //_bets를 관리할 큐를 위한 변수들 : _tail, _head\n\n    bool private mode = false; // false : use answer for test mode.  true : use real block hash\n    bytes32 public answerForTest;\n\n    // enum 배열이므로 실제로는 정수 0, 1, 2 를 리턴한다.\n    enum BlockStatus { Checkable, NotRevealed, BlockLimitPassed }\n    enum BettingResult {Fail, Win, Draw }\n\n    event BET(uint256 index, address indexed bettor, uint256 amount, byte challenges, uint256 answerBlockNumber);\n    event WIN(uint256 index, address bettor, uint256 amount, byte challenges, byte answer, uint256 answerBlockNumber);\n    event FAIL(uint256 index, address bettor, uint256 amount, byte challenges, byte answer, uint256 answerBlockNumber);\n    event DRAW(uint256 index, address bettor, uint256 amount, byte challenges, byte answer, uint256 answerBlockNumber);\n    event REFUND(uint256 index, address bettor, uint256 amount, byte challenges, uint256 answerBlockNumber);\n    constructor() public {\n        owner = msg.sender;\n    }\n\n    function getPot() public view returns (uint256 value){\n        return _pot;\n    }\n\n    function getBetInfo(uint256 index) public view returns (uint256 answerBlockNumber, address bettor, byte challenges) {\n        //mapping의 경우 인덱스가 3번까지 있는데 5번이 입력될 시 0을 리턴함.\n        BetInfo memory b = _bets[index];\n        answerBlockNumber = b.answerBlockNumber;\n        bettor = b.bettor;\n        challenges = b.challenges;\n    }\n\n\n    /**\n    @dev 베팅을 한다. 유저는 0.005 이더를 보내야 하고, 베팅용 1바이트 글자를 보낸다. 베팅 정보를 큐에 저장하고, 이벤트를 발생시킨다.\n    큐에 저장된 베팅정보들은 이후 distribute 함수에서 해결한다.\n    @param  challenges 유저가 베팅하는 글자.\n    @return 함수가 잘 수행되었는지 확인하기 위한 bool 값\n     */\n    function bet(byte challenges) public payable returns (bool result) {\n        // Check the proper amount of ether is sent\n        require(msg.value == BET_AMOUNT, \"Not enough ETH\");\n\n        // Push bet to the queue. 큐에 베팅정보를 저장한다.\n        require(pushBet(challenges), \"Fail to add a new Bet Info\");\n\n        // Emit event\n        emit BET(_tail - 1, msg.sender, msg.value, challenges, block.number + BET_BLOCK_INTERVAL);\n\n        return true;\n    }\n\n    function pushBet(byte challenges) internal returns (bool) {\n        BetInfo memory b;\n        b.bettor = msg.sender; // 20 byte\n        //block.number = 현재 트랜잭션이 들어간 블록의 번호.\n        b.answerBlockNumber = block.number + BET_BLOCK_INTERVAL; // 32byte(uint256기 때문에) = 20000 gas.\n        b.challenges = challenges;  //byte.   b.bettor(=20바이트)와 합쳐 20000gas 사용한다고 어림잡아 계산\n\n        // 메모리에 저장된 b(20+32+1 byte)의 데이터가 실제 블록체인에 저장되어서 가스 발생.\n        _bets[_tail] = b;\n        //tail값을 조건문으로 검사한다거나 문제생길 것 같으면 safemath로 확인해줘야겠지만. 여기선 넘어감.\n        _tail++; // 32byte. 값 변화(초기 0 -> 1) = 20000 가스.  기존의 값 변화 (1 -> 2, 2-> 3 등...) 5000 가스.\n\n        return true;\n    }\n\n    function popBet(uint256 index) internal returns (bool) {\n        /**\n        pop시 매핑이기 때문에 리스트에서 삭제하기보다는 단순하게 값을 초기화시키는 식으로 진행.\n        맵에 있는 값을 delete하게 되면 가스를 돌려받는다. status database에 있는 값을 없애기 때문에. 그래서 사용하지 않는 값은 늘 삭제해주는 것이 좋다\n        */\n        delete _bets[index];\n        return true;\n    }\n\n    /**\n    베팅, 정답 체크를 한번에 하는 함수. 현재 베팅함수와 정답확인 함수가 따로 나눠져 있어서, 유저들이 베팅을 하고 정답확인을 운영자들이 해줘야 하는데 유저들이 정답 확인하면서 남의 정답도 같이 확인함. 그래서 베팅, 정답확인, 분배가 동시에 일어나게 하는 함수 작성이 필요. 추후 웹 프론트에서 사용할 예정.\n    @dev 베팅과 정답체크를 한다.\n    @param challenges 유저가 베팅하는 문자열\n    @return 함수가 잘 수행되었는지 확인하기 위한 bool 값\n     */\n    function betAndDistribute(byte challenges) public payable returns (bool result) {\n        bet(challenges);\n\n        distribute();\n\n        return true;\n    }\n\n    /**\n    @dev 베팅 결과값을 확인하고 결과값에 따라 베팅액과 팟머니를 처리\n    정답실패 : 베팅금을 팟머니에 축적. 정답 맞춤 : 팟머니를 정답자에게 전송. 한글자 맞춤 or 정답확인불가 : 베팅 금액만 돌려줌.\n    */\n    function distribute() public {\n        //head부터 tail까지 모두 도는 루프.\n        uint256 cur;\n        uint256 transferAmount; // 정답 맞춘 유저에게 보낼 팟머니.\n\n        BetInfo memory b;\n        BlockStatus currentBlockStatus;\n        BettingResult currentBettingResult;\n        for(cur=_head; cur<_tail ; cur ++){\n            b = _bets[cur];\n            currentBlockStatus = getBlockStatus(b.answerBlockNumber);\n\n            //블록넘버 확인 가능한 상태인지 확인. Checkable =  1. 블록넘버 확인 가능함 = 정답 확인.\n            if(currentBlockStatus == BlockStatus.Checkable){\n                bytes32 answerBlockHash = getAnswerBlockHash(b.answerBlockNumber);\n                currentBettingResult = isMatch(b.challenges, answerBlockHash);\n                //if win, bettor gets pot\n                if (currentBettingResult == BettingResult.Win) {\n                    //transfer pot. 수수료를 뗀 후 팟머니 전송.\n                    transferAmount = transferAfterPayingFee(b.bettor, _pot + BET_AMOUNT);\n                    //pot = 0\n                    _pot = 0;\n                    //emit WIN\n                    emit WIN(cur, b.bettor, transferAmount, b.challenges, answerBlockHash[0], b.answerBlockNumber);\n                }\n                //if fail, bettor's pot goes pot\n                if (currentBettingResult == BettingResult.Fail) {\n                    //pot = pot + BET_AMOUNT\n                    _pot += BET_AMOUNT;\n                    //emit Fail\n                    emit FAIL(cur, b.bettor, 0, b.challenges, answerBlockHash[0], b.answerBlockNumber);\n                }\n                //if draw, refund bettor's money\n                if (currentBettingResult == BettingResult.Draw) {\n                //transfer only BET_AMOUNT(refund)\n                    transferAmount = transferAfterPayingFee(b.bettor, BET_AMOUNT);\n                //emit DRAW\n                    emit DRAW(cur, b.bettor, transferAmount, b.challenges, answerBlockHash[0], b.answerBlockNumber);\n                }\n            }\n            //블록넘버 확인 가능한 상태인지 확인. 1. Not Revealed : 아직 마이닝 되지 않았다.   2\n            if(currentBlockStatus == BlockStatus.NotRevealed){\n                break;\n            }\n            //블록넘버 확인 가능한 상태인지 확인 2. Limit block passed : 너무 오래전에 마이닝된 블록(256번째 전 블록). 3\n            if(currentBlockStatus == BlockStatus.BlockLimitPassed){\n                //refund\n                transferAmount = transferAfterPayingFee(b.bettor, BET_AMOUNT);\n                //emit refund\n                emit REFUND(cur, b.bettor, transferAmount, b.challenges, b.answerBlockNumber);\n            }\n            popBet(cur);\n        }\n        _head = cur;\n    }\n\n    /**\n    @dev 베팅 글자와 정답을 비교해 확인한다.\n    @param challenges 베팅 글자\n    @param answer 정답(블록해시)\n    @return 정답결과\n     */\n    function isMatch(byte challenges, bytes32 answer) public pure returns (BettingResult) {\n        // challenges = 0xab,  answer = 0xab....ff 라는 32바이트 글자. 첫번째 글자부터 뽑아 서로 비교한다. \n        byte c1 = challenges;\n        byte c2 = challenges;\n        //0번 해시을 가져옴.  0xab....ff 에서 (a에 해당).\n        byte a1 = answer[0];\n        byte a2 = answer[0];\n\n        // Get first number\n        c1 = c1 >> 4; // 0xab -> 0x0a\n        c1 = c1 << 4; // 0x0a -> 0xa0\n\n        a1 = a1 >> 4;\n        a1 = a1 << 4;\n\n        //Get Second number\n        c2 = c2 << 4; // 0xab -> 0xb0\n        c2 = c2 >> 4; // 0xb0 -> 0x0b\n\n        a2 = a2 << 4;\n        a2 = a2 >> 4;\n\n        if(a1 == c1 && a2 == c2) {\n            return BettingResult.Win;\n        }\n\n        if(a1 == c1 || a2 == c2) {\n            return BettingResult.Draw;\n        }\n\n        return BettingResult.Fail;\n    }\n\n    function getBlockStatus(uint256 answerBlockNumber) internal view returns(BlockStatus){\n        if(block.number > answerBlockNumber && block.number < BLOCK_LIMIT + answerBlockNumber){\n            return BlockStatus.Checkable;\n        }\n        if(block.number <= answerBlockNumber){\n            return BlockStatus.NotRevealed;\n        }\n        if(block.number >= answerBlockNumber + BLOCK_LIMIT){\n            return BlockStatus.BlockLimitPassed;\n        }\n        return BlockStatus.BlockLimitPassed;\n    }\n\n    function getAnswerBlockHash(uint256 answerBlockNumber) internal view returns (bytes32 answer) {\n        //mode가 true라면 blockhash(answerBlockNumber),  false라면(테스트모드) answerForTest 리턴\n        return mode ? blockhash(answerBlockNumber) : answerForTest;\n    }\n    function setAnswerForTest(bytes32 answer) public returns (bool result){\n        require(msg.sender == owner, \"Only owner can set the answer for test mode\");\n        answerForTest = answer;\n        return true;\n    }\n\n    //일정부분을 수수료로 컨트랙트 주인에게 전송. 수수료 떼진 베팅금을 리턴.\n    function transferAfterPayingFee(address addr, uint256 amount) internal returns (uint256) {\n        // fee = amount / 100;\n        uint256 fee = 0;\n        uint256 amountWithoutFee = amount - fee;\n        // transfer to addr\n        addr.transfer(amountWithoutFee);\n        // transfer to owner\n        owner.transfer(fee);\n        return amountWithoutFee;\n    }\n}",
  "sourcePath": "/Users/donghee/workspace/Node/lottery/lottery_contract/contract/contracts/Lottery.sol",
  "compiler": {
    "name": "solc",
    "version": "0.4.22+commit.4cb486ee.Emscripten.clang"
  },
  "schemaVersion": "3.4.6",
  "updatedAt": "2022-03-31T11:17:31.064Z",
  "networkType": "ethereum",
  "devdoc": {
    "methods": {
      "bet(bytes1)": {
        "details": "베팅을 한다. 유저는 0.005 이더를 보내야 하고, 베팅용 1바이트 글자를 보낸다. 베팅 정보를 큐에 저장하고, 이벤트를 발생시킨다. 큐에 저장된 베팅정보들은 이후 distribute 함수에서 해결한다.",
        "params": {
          "challenges": "유저가 베팅하는 글자."
        },
        "return": "함수가 잘 수행되었는지 확인하기 위한 bool 값"
      },
      "betAndDistribute(bytes1)": {
        "details": "베팅과 정답체크를 한다.",
        "params": {
          "challenges": "유저가 베팅하는 문자열"
        },
        "return": "함수가 잘 수행되었는지 확인하기 위한 bool 값"
      },
      "distribute()": {
        "details": "베팅 결과값을 확인하고 결과값에 따라 베팅액과 팟머니를 처리 정답실패 : 베팅금을 팟머니에 축적. 정답 맞춤 : 팟머니를 정답자에게 전송. 한글자 맞춤 or 정답확인불가 : 베팅 금액만 돌려줌."
      },
      "isMatch(bytes1,bytes32)": {
        "details": "베팅 글자와 정답을 비교해 확인한다.",
        "params": {
          "answer": "정답(블록해시)",
          "challenges": "베팅 글자"
        },
        "return": "정답결과"
      }
    }
  },
  "userdoc": {
    "methods": {
      "betAndDistribute(bytes1)": {
        "notice": "베팅, 정답 체크를 한번에 하는 함수. 현재 베팅함수와 정답확인 함수가 따로 나눠져 있어서, 유저들이 베팅을 하고 정답확인을 운영자들이 해줘야 하는데 유저들이 정답 확인하면서 남의 정답도 같이 확인함. 그래서 베팅, 정답확인, 분배가 동시에 일어나게 하는 함수 작성이 필요. 추후 웹 프론트에서 사용할 예정."
      }
    }
  }
}